:020000040000FA
:04000000EEEF25F00A
:104BDC0000EEC4F0090EEE6AE806FDE15F6A000E15
:104BEC00F86E000197EF2CF0010EC26E0E0EC16E26
:104BFC00000E936E010E946E000E956E000E966E66
:104C0C00000E816E000E826E000E836E000E846E9E
:104C1C001200C4C005F0C5C006F0C6C007F0C7C07E
:104C2C0008F001C005F002C006F003C007F004C094
:104C3C0008F0089E05C001F006C002F007C003F0A2
:104C4C0008C004F01200016E0150D8B430EF26F009
:104C5C0032EF26F036EF26F08A808A9238EF26F073
:104C6C008A928A8295688A868A8800D083CF02F0DD
:104C7C008A9800D08A908A92025012000A6E0A50CA
:104C8C00D8B44BEF26F04DEF26F051EF26F08A808A
:104C9C008A9253EF26F08A928A82000E956E8A963B
:104CAC0009C08CFF8A8800D08A9800D08A908A929A
:104CBC0012000001785179117A117B11D8B469EF87
:104CCC0026F06BEF26F073EF26F0000E781B000E2B
:104CDC00791B000E7A1B800E7B1B78C078F079C094
:104CEC0079F07AC07AF07BC07BF01200000E551A76
:104CFC00000E561A000E571A800E581A51C041F069
:104D0C0052C042F053C043F054C044F055C045F07B
:104D1C0056C046F057C047F058C048F084EC34F009
:104D2C0041C051F042C052F043C053F044C054F063
:104D3C001200C1EF26F01650D8B4A7EF26F0A9EF59
:104D4C0026F0B5EF26F017C00BF014C0F6FF15C017
:104D5C00F7FF0800F55034EC2AF0BFEF26F017C02F
:104D6C000BF014C0F6FF15C0F7FF0800F550AEECC1
:104D7C0029F0144A152A14C0F6FF15C0F7FF0800D5
:104D8C00F5500009D8A4CDEF26F0CFEF26F0A1EF17
:104D9C0026F012000D6E000E0C6E800E0D60D9EF19
:104DAC0026F0DBEF26F003EF27F0070E0B64E1EFA4
:104DBC0026F0E3EF26F0E5EF26F003EF27F00DC029
:104DCC005FF00BC0CCF03F0E0D64EFEF26F0F1EF6F
:104DDC0026F0F5EF26F0400E0D5E010E0C6E8A9457
:104DEC000D504009096E0C5044EC26F00B50B809DC
:104DFC00096E0C5044EC26F08A8412000B6E000EE7
:104E0C000D6E8A94400E096E000E44EC26F0400E96
:104E1C00096E010E44EC26F00D50B809096E000E17
:104E2C0044EC26F00D50B809096E010E44EC26F046
:104E3C008A84000E0C6E0B50010DF3500008096EA5
:104E4C00000E44EC26F00B50010DF3500008096ED7
:104E5C00010E44EC26F00C2A3F0E0C6438EF27F0C0
:104E6C003AEF27F021EF27F00D2A070E0D6441EFE2
:104E7C0027F043EF27F007EF27F01200000E0C6E1F
:104E8C00000E0B6E000E0E6E000E0F6E8A94400E0E
:104E9C00096E0F5044EC26F00E50B809096E0F50F5
:104EAC0044EC26F08A84000E0D6EE70E0B24F66E91
:104EBC007A0E0C20F76E0800F5CF09F00F5044EC79
:104ECC0026F00B4A0C2A0D2A3F0E0D6470EF27F0CA
:104EDC0072EF27F05BEF27F00F2A010E0F6479EFCA
:104EEC0027F07BEF27F04CEF27F00E2A070E0E640D
:104EFC0082EF27F084EF27F04AEF27F08A908A920E
:104F0C001200196E000E176EA0EF27F012C00BF0F6
:104F1C0015C00CF019501724C2EC28F012501424B0
:104F2C00166E16040B6E15C00CF019501724C2EC3B
:104F3C0028F0172A1350175CD8A0A7EF27F0A9EF79
:104F4C0027F08CEF27F0000E186EC1EF27F01250EF
:104F5C0018240B6E15C00CF01950C2EC28F012502E
:104F6C0018240B6E15C00CF019501324166E160471
:104F7C00C2EC28F0182A1450185CD8A0C8EF27F0FF
:104F8C00CAEF27F0ADEF27F012001B6E1BC01CF010
:104F9C00F8EF27F012C01DF0DDEF27F01DC00BF06D
:104FAC0015C00CF01C50C2EC28F00A0E1D26145033
:104FBC0012C016F0176A1626000E17221D50186E16
:104FCC00196A1650185C1950800A1A6E1750800A0C
:104FDC001A58D8A0F4EF27F0F6EF27F0D4EF27F00B
:104FEC000A0E1C2613501BC016F0176A1626000E4C
:104FFC0017221C50186E196A1650185C1950800A2A
:10500C001A6E1750800A1A58D8A00FEF28F011EF1B
:10501C0028F0D0EF27F012000E6E000E836E8A9AE5
:10502C00210EE82EFED700008A8A8A988A908A92EE
:10503C008A9400D0C00E096E000E44EC26F0C00E0F
:10504C00096E010E44EC26F0400E096E000E44EC85
:10505C0026F0400E096E010E44EC26F0B80E096ED7
:10506C00000E44EC26F0B80E096E010E44EC26F04E
:10507C000E04D8A444EF28F046EF28F052EF28F0A5
:10508C003F0E096E000E44EC26F03F0E096E010E29
:10509C0044EC26F05CEF28F03E0E096E000E44EC5A
:1050AC0026F03E0E096E010E44EC26F0000E04ECC8
:1050BC0027F01200000E066E04BE69EF28F067EFB1
:1050CC0028F06FEF28F0036C041ED8B0042A010EF0
:1050DC00066E02BE76EF28F074EF28F07CEF28F015
:1050EC00016C021ED8B0022A010E061A000E086EC0
:1050FC00000E076E03500410D8B487EF28F089EF28
:10510C0028F0B1EF28F0010E056E91EF28F0D89041
:10511C0003360436052A04AE96EF28F098EF28F0F3
:10512C008DEF28F0D890073608360350015C0450F8
:10513C000258D8A0A4EF28F0A6EF28F0ABEF28F087
:10514C000350015E0450025A0780D8900432033297
:10515C00052E98EF28F00650D8B4B7EF28F0B9EF29
:10516C0028F0BDEF28F0076C081ED8B0082A07C03D
:10517C0001F008C002F012000F6E000E116E3F0E0F
:10518C000F64CBEF28F0CDEF28F0D1EF28F0400ED4
:10519C000F5E010E116E8A940F9E0F8C0FC009F0DA
:1051AC00115044EC26F00BC001F0026A000E046EA4
:1051BC00080E036E60EC28F00150BF0BB809096EA5
:1051CC00115044EC26F08A84115029EC26F0115031
:1051DC0029EC26F0106E8A940FC009F0115044ECA3
:1051EC0026F00C50D8B4FDEF28F0FFEF28F012EFAA
:1051FC0029F00BC00DF0070E0D16010E0E6E0D2AC8
:10520C000AEF29F0D8900E360D2E08EF29F00E502B
:10521C001010106E24EF29F00BC00DF0070E0D16B8
:10522C00010E0E6E0D2A1DEF29F0D8900E360D2EA4
:10523C001BEF29F00E50FF0A1014106E8A8410C058
:10524C0009F0115044EC26F01200533454345A6EC9
:10525C005A50D8A434EF29F036EF29F040EF29F05A
:10526C00000E516E000E526E000E536E000E546EF8
:10527C00ADEF29F051C055F052C056F053C057F065
:10528C0054C058F0200E50EF29F0D89058325732B5
:10529C0056325532E82E4BEF29F05550596E538E3D
:1052AC00FF0E5116FF0E5216FF0E5316000E54161B
:1052BC00960E5A5E5ABE67EF29F065EF29F07DEF26
:1052CC0029F05A50800A970FD8B06FEF29F071EF80
:1052DC0029F073EF29F036EF29F0D890543253327D
:1052EC00523251325A3E73EF29F095EF29F01F0ECE
:1052FC005A6483EF29F085EF29F08DEF29F036EF12
:10530C0029F0D89051365236533654365A065A50E4
:10531C00D8A493EF29F095EF29F087EF29F0595095
:10532C00D8B49BEF29F09DEF29F0A5EF29F0541E7E
:10533C00531E521E516C000E52225322542251C045
:10534C0051F052C052F053C053F054C054F01200FC
:10535C000F6E000E116E0A0E0F18D8A4B8EF29F0BC
:10536C00BAEF29F0C0EF29F0000E5F6E0001CC2BD4
:10537C0033EF2AF03F0E5F64C6EF29F0C8EF29F037
:10538C00CFEF29F0010E116E5F50C00F0E6ED1EFF2
:10539C0029F05FC00EF0200E0F5E000E106E3F0E57
:1053AC000E64DBEF29F0DDEF29F0F0EF29F0400E71
:1053BC000E5E010E116E8A940E504009096E010E9C
:1053CC0044EC26F00001CC51B809096E010E44ECF6
:1053DC0026F08A840B50D8B4F6EF29F0F8EF29F0B8
:1053EC0010EF2AF00F50030DE70EF3240C6E7E0E17
:1053FC00F4200D6E10500C26000E0D220CC0F6FF82
:10540C000DC0F7FF0800F5CF09F0115044EC26F061
:10541C0027EF2AF00F50030DE70EF3240C6E7E0ECF
:10542C00F4200D6E10500C26000E0D220CC0F6FF51
:10543C000DC0F7FF0800F550FF0A096E115044EC3F
:10544C0026F00E2A102A020E10642FEF2AF031EFEC
:10545C002AF0D5EF29F0050E5F261200106E000E13
:10546C00136E0A0E1018D8A43EEF2AF040EF2AF063
:10547C0046EF2AF0000E5F6E0001CC2BBDEF2AF038
:10548C003F0E5F644CEF2AF04EEF2AF055EF2AF0F6
:10549C00010E136E5F50C00F116E57EF2AF05FC0F4
:1054AC0011F01050080DF3CF0EF0F4CF0FF0000EEA
:1054BC00126E3F0E116465EF2AF067EF2AF07AEF57
:1054CC002AF0400E115E010E136E8A9411504009A1
:1054DC00096E010E44EC26F00001CC51B809096E9E
:1054EC00010E44EC26F08A840B50D8B480EF2AF0DD
:1054FC0082EF2AF09AEF2AF0E70E0C6E720E0D6E08
:10550C0012500C26000E0D220E500C260F500D22A0
:10551C000CC0F6FF0DC0F7FF0800F5CF09F01350D3
:10552C0044EC26F0B1EF2AF0E70E0C6E720E0D6E05
:10553C0012500C26000E0D220E500C260F500D2270
:10554C000CC0F6FF0DC0F7FF0800F550FF0A096EFE
:10555C00135044EC26F0112A122A070E1264B9EFEC
:10556C002AF0BBEF2AF05FEF2AF0080E5F2612003C
:10557C00096E0950D8B4C5EF2AF0C7EF2AF0E9EF4D
:10558C002AF004BECEEF2AF0CCEF2AF0E9EF2AF095
:10559C0001C005F002C006F003C007F004C008F01B
:1055AC00051E061E071E081E052A000E06220722CF
:1055BC00082205C00BF006C00CF007C00DF008C0A7
:1055CC000EF0F1EF2AF001C00BF002C00CF003C09A
:1055DC000DF004C00EF00150021003100410D8A4FA
:1055EC00FAEF2AF0FCEF2AF006EF2BF0000E016E1A
:1055FC00000E026E000E036E000E046E97EF2BF081
:10560C00960E0A6E10EF2BF00A2AD8900E320D323D
:10561C000C320B32000E0B14056E000E0C14066EC1
:10562C00000E0D14076EFE0E0E14086E05500610BB
:10563C0007100810D8A425EF2BF027EF2BF00AEF5A
:10564C002BF035EF2BF00A2A010E0B26000E0C2244
:10565C000D220E22D8900E320D320C320B32000E6F
:10566C000B14056E000E0C14066E000E0D14076E56
:10567C00FF0E0E14086E0550061007100810D8A463
:10568C004AEF2BF04CEF2BF029EF2BF054EF2BF0D3
:10569C000A06D8900B360C360D360E360DBE59EF69
:1056AC002BF05BEF2BF063EF2BF0020E0A6061EF37
:1056BC002BF063EF2BF04EEF2BF00AB068EF2BF0D2
:1056CC006AEF2BF06BEF2BF00D9ED8900A320AC0CC
:1056DC0005F0066A076A086A05C008F0076A066AD8
:1056EC00056A05500B1206500C1207500D1208508B
:1056FC000E120950D8B485EF2BF087EF2BF08FEFFB
:10570C002BF004BE8EEF2BF08CEF2BF08FEF2BF0E9
:10571C000E8E0BC001F00CC002F00DC003F00EC0D9
:10572C0004F0120051C00FF052C010F053C011F031
:10573C0054C012F051C013F052C014F053C015F005
:10574C0054C016F06FEC32F00FC074F010C075F04E
:10575C0011C076F012C077F074C00FF075C010F065
:10576C0076C011F077C012F074C013F075C014F04D
:10577C0076C015F077C016F06FEC32F00FC070F0F9
:10578C0010C071F011C072F012C073F0170E136ECE
:10579C009A0E146ECC0E156E370E166E74C00FF07A
:1057AC0075C010F076C011F077C012F06FEC32F0CB
:1057BC000FC041F010C042F011C043F012C044F0D1
:1057CC003F0E456E040E466EB60E476EBA0E486E10
:1057DC0084EC34F041C060F042C061F043C062F030
:1057EC0044C063F0000E456E000E466E800E476E90
:1057FC003F0E486E000E136E000E146E000E156EEA
:10580C00BF0E166E74C00FF075C010F076C011F09C
:10581C0077C012F06FEC32F00FC041F010C042F0C4
:10582C0011C043F012C044F084EC34F041C064F079
:10583C0042C065F043C066F044C067F074C013F01A
:10584C0075C014F076C015F077C016F070C00FF06C
:10585C0071C010F072C011F073C012F06FEC32F026
:10586C000FC068F010C069F011C06AF012C06BF084
:10587C009F0E136EAA0E146E2A0E156E3D0E166E2A
:10588C0070C00FF071C010F072C011F073C012F044
:10589C006FEC32F00FC045F010C046F011C047F06D
:1058AC0012C048F064C041F065C042F066C043F0DD
:1058BC0067C044F084EC34F041C06CF042C06DF031
:1058CC0043C06EF044C06FF06CC041F06DC042F04C
:1058DC006EC043F06FC044F060C013F061C014F0B0
:1058EC0062C015F063C016F068C00FF069C010F00C
:1058FC006AC011F06BC012F06FEC32F00FC045F0C3
:10590C0010C046F011C047F012C048F084EC34F0DF
:10591C0041C051F042C052F043C053F044C054F067
:10592C001200FAEC25F0000E04EC27F0010E12EC3C
:10593C0028F044EC27F0150E0001B56F4B0EB46F38
:10594C00BE0EE82EFED7B42FFCD7B52FFAD7000029
:10595C00000E04EC27F0010E126E560E136E3A0E6A
:10596C00146E010E156E010ECBEC27F0010E126EAB
:10597C005A0E136E3E0E146E010E156E010E87EC50
:10598C0027F0010E0B6E600ED0EC26F0EF0E146EAD
:10599C007F0E156E010E166E010E176E9FEC26F023
:1059AC00020E0B6E5E0ED0EC26F0F40E146E7F0E13
:1059BC00156E010E166E010E176E9FEC26F0050E7D
:1059CC000B6E600ED0EC26F0EA0E146E7F0E156E88
:1059DC00010E166E010E176E9FEC26F0060E0B6E66
:1059EC005E0ED0EC26F0F90E146E7F0E156E010EC5
:1059FC00166E010E176E9FEC26F0000E0001C06FA4
:105A0C000A0EC16F000EC36F010EC26F000E2C6E1A
:105A1C00000E2D6EB40E2E6E420E2F6E560E136EA1
:105A2C000E0E146EC90E156E400E166EC2C001F02D
:105A3C00C3C002F0000E02BEFF0E036E046E010E18
:105A4C00BEEC2AF001C00FF002C010F003C011F040
:105A5C0004C012F06FEC32F00FC028F010C029F027
:105A6C0011C02AF012C02BF0C1EC2EF028C0B6F0F9
:105A7C0029C0B7F02AC0B8F02BC0B9F0B6C09AF064
:105A8C00B7C09BF0B8C09CF0B9C09DF0E4EC36F008
:105A9C009AC0BAF09BC0BBF09CC0BCF09DC0BDF0DE
:105AAC00000E136E000E146EA00E156E410E166EC7
:105ABC00000E456E000E466E800E476E3F0E486E11
:105ACC00BAC041F0BBC042F0BCC043F0BDC044F012
:105ADC0084EC34F041C00FF042C010F043C011F020
:105AEC0044C012F06FEC32F00FC051F010C052F005
:105AFC0011C053F012C054F02BEC29F00001C1512D
:105B0C005124BE6F000E5220BF6FBEC00BF0010EB1
:105B1C000C6EC051C225C2EC28F00001C24BC32B45
:105B2C00C3BFA2EF2DF0C35109E1530EC25DD8A043
:105B3C00A2EF2DF0A4EF2DF00CEF2DF0A4EF2DF033
:105B4C0000EF00F051C00FF052C010F053C011F034
:105B5C0054C012F051C013F052C014F053C015F0E1
:105B6C0054C016F06FEC32F00FC078F010C079F022
:105B7C0011C07AF012C07BF078C00FF079C010F031
:105B8C007AC011F07BC012F078C013F079C014F019
:105B9C007AC015F07BC016F06FEC32F00FC064F0D9
:105BAC0010C065F011C066F012C067F03C0E136EA9
:105BBC006C0E146E360E156E360E166E78C00FF017
:105BCC0079C010F07AC011F07BC012F06FEC32F09B
:105BDC000FC041F010C042F011C043F012C044F0AD
:105BEC00CF0E456E070E466E500E476EB90E486EC0
:105BFC0084EC34F041C060F042C061F043C062F00C
:105C0C0044C063F078C00FF079C010F07AC011F086
:105C1C007BC012F051C013F052C014F053C015F0F9
:105C2C0054C016F06FEC32F00FC074F010C075F069
:105C3C0011C076F012C077F0AB0E456EAA0E466E10
:105C4C002A0E476EBE0E486E840E136E880E146EAE
:105C5C00080E156E3C0E166E78C00FF079C010F061
:105C6C007AC011F07BC012F06FEC32F00FC041F033
:105C7C0010C042F011C043F012C044F084EC34F078
:105C8C0041C068F042C069F043C06AF044C06BF098
:105C9C0064C013F065C014F066C015F067C016F050
:105CAC0074C00FF075C010F076C011F077C012F010
:105CBC006FEC32F00FC06CF010C06DF011C06EF0D4
:105CCC0012C06FF051C045F052C046F053C047F0BF
:105CDC0054C048F074C013F075C014F076C015F0C1
:105CEC0077C016F068C00FF069C010F06AC011F0F0
:105CFC006BC012F06FEC32F00FC041F010C042F0EC
:105D0C0011C043F012C044F084EC34F041C070F088
:105D1C0042C071F043C072F044C073F070C041F0E7
:105D2C0071C042F072C043F073C044F060C013F015
:105D3C0061C014F062C015F063C016F06CC00FF0B7
:105D4C006DC010F06EC011F06FC012F06FEC32F03D
:105D5C000FC045F010C046F011C047F012C048F01B
:105D6C0084EC34F041C051F042C052F043C053F0C7
:105D7C0044C054F012002B50800B386E2B502B2447
:105D8C003F6E2AAECCEF2EF0CEEF2EF0CFEF2EF0F2
:105D9C003F803F50D8B4D5EF2EF0D7EF2EF0ECEF7C
:105DAC002EF03F28D8A4DDEF2EF0DFEF2EF0E7EF3A
:105DBC002EF0000E286E000E296E000E2A6E000EBC
:105DCC002B6E2A8E000E2B6EF4EF2EF0000E286E2A
:105DDC00000E296E000E2A6E000E2B6E2F50800BBB
:105DEC00381A2F502F24406E2EAEFFEF2EF001EFFD
:105DFC002FF002EF2FF040804050D8B408EF2FF076
:105E0C000AEF2FF01FEF2FF04028D8A410EF2FF03F
:105E1C0012EF2FF01AEF2FF0000E2C6E000E2D6EDD
:105E2C00000E2E6E000E2F6E2E8E000E2F6E27EF94
:105E3C002FF0000E2C6E000E2D6E000E2E6E000E2E
:105E4C002F6E2C502D102E102F10D8A430EF2FF0B9
:105E5C0032EF2FF04AEF2FF0000E286E000E296E55
:105E6C00000E2A6E000E2B6E800E2A127F0E2B1245
:105E7C0038502B1228C028F029C029F02AC02AF04B
:105E8C002BC02BF08DEF30F03F50D8A450EF2FF0FB
:105E9C0052EF2FF05CEF2FF0000E286E000E296EE3
:105EAC00000E2A6E000E2B6E8DEF30F040503FC06E
:105EBC0030F0316A305E000E315A7F0E3024396E6C
:105ECC00000E31203A6E28C034F029C035F02AC0BB
:105EDC0036F02BC037F0000E286E000E296E000E27
:105EEC002A6E000E2B6E000E3B6E000E3C6E000EEA
:105EFC003D6E000E3E6E000E406EBDEF2FF040501A
:105F0C00D8B48BEF2FF08DEF2FF0A4EF2FF0D890AB
:105F1C003436353636363736D890283629362A3642
:105F2C002B363EAE9CEF2FF09EEF2FF09FEF2FF015
:105F3C002880D8903B363C363D363E362C50345C6F
:105F4C002D5035582E5036582F503758D8A0B1EF09
:105F5C002FF0B3EF2FF0BCEF2FF03E8C2C50345EB3
:105F6C002D50355A2E50365A2F50375A402A190E6A
:105F7C004064C3EF2FF0C5EF2FF085EF2FF03450B6
:105F8C00351036103710D8B4CEEF2FF0D0EF2FF0ED
:105F9C00E8EF2FF03B80E8EF2FF0D8902836293629
:105FAC002A362B363EAEDDEF2FF0DFEF2FF0E0EF91
:105FBC002FF02880D8903B363C363D363E3639069D
:105FCC00D8A03A062AAEEDEF2FF0EFEF2FF0D3EF7B
:105FDC002FF0000E406E3EAEF6EF2FF0F8EF2FF0E4
:105FEC001CEF30F0FF0E3B14306EFF0E3C14316E84
:105FFC00FF0E3D14326E7F0E3E14336E3050311056
:10600C0032103310D8B40DEF30F00FEF30F013EF37
:10601C0030F0010E406E1CEF30F028A018EF30F07D
:10602C001AEF30F01CEF30F00FEF30F04050D8B4D6
:10603C0022EF30F024EF30F048EF30F0010E28263C
:10604C00000E29222A222B222BA02FEF30F031EF29
:10605C0030F048EF30F028C030F029C031F02AC0C1
:10606C0032F02BC033F033343332323231323032FF
:10607C0030C028F031C029F032C02AF033C02BF0E8
:10608C00394A3A2A3ABE53EF30F03A5008E13928EF
:10609C00D8A053EF30F055EF30F060EF30F0000E39
:1060AC003A6E3968000E286E000E296E000E2A6EAC
:1060BC00000E2B6E3ABE6DEF30F03A5006E139040B
:1060CC00D8B06BEF30F06DEF30F07BEF30F0000EAE
:1060DC003A6E000E396E000E286E000E296E000E00
:1060EC002A6E000E2B6E000E386E39C03FF03FA0AA
:1060FC0082EF30F084EF30F087EF30F02A8E88EFAB
:10610C0030F02A9ED8903F302B6E3EEF2FF01200CD
:10611C00C8C08AF0C9C08BF0CAC08CF0CBC08DF05F
:10612C007CC08AF07DC08BF07EC08CF07FC08DF07F
:10613C0000018DBFA4EF30F0A7EF30F0010EA8EFF7
:10614C0030F0000E896F8D9FDB0E8A5D0F0E8B5920
:10615C00C90E8C594D0E8D59D8B0B7EF30F0B9EF40
:10616C0030F0A5EF31F07CC001F07DC002F07EC0B4
:10617C0003F07FC004F00FEC26F001C092F002C0D7
:10618C0093F003C094F004C095F0000E456E000E21
:10619C00466E000E476E3F0E486E830E136EF90E60
:1061AC00146E220E156E3F0E166E92C00FF093C039
:1061BC0010F094C011F095C012F06FEC32F00FC0DB
:1061CC0041F010C042F011C043F012C044F084EC16
:1061DC0034F041C051F042C052F043C053F044C0BF
:1061EC0054F02BEC29F051C096F052C097F053C0EC
:1061FC0098F054C099F096C001F097C002F098C086
:10620C0003F099C004F0010EBEEC2AF001C08EF030
:10621C0002C08FF003C090F004C091F0DA0E136E40
:10622C000F0E146EC90E156E3F0E166E8EC00FF04B
:10623C008FC010F090C011F091C012F06FEC32F0E2
:10624C000FC055F010C056F011C057F012C058F0E6
:10625C0092C051F093C052F094C053F095C054F0DA
:10626C007CEC26F051C085F052C086F053C087F00C
:10627C0054C088F085C051F086C052F087C053F0EE
:10628C0088C054F0A30E136E850E146E880E156E16
:10629C00320E166E8EC00FF08FC010F090C011F041
:1062AC0091C012F06FEC32F00FC055F010C056F0E8
:1062BC0011C057F012C058F07CEC26F00001805150
:1062CC00D96EDA6A51C0DEFF52C0DEFF53C0DEFF6A
:1062DC0054C0DEFF8951D8B476EF31F078EF31F04D
:1062EC009FEF31F08051D96EDA6ADECF78F0DECFD5
:1062FC0079F0DECF7AF0DECF7BF05FEC26F0000198
:10630C008051D96EDA6A78C0DEFF79C0DEFF7AC0C0
:10631C00DEFF7BC0DEFF96C05BF097C05CF05B1EBF
:10632C005C1E5B4A5C2A5BC07CF05CC07DF06EEF4F
:10633C0032F096C07CF097C07DF06EEF32F07CC0EE
:10634C0001F07DC002F07EC003F07FC004F00FECC2
:10635C0026F001C092F002C093F003C094F004C088
:10636C0095F0000E456E000E466E000E476E3F0E09
:10637C00486E830E136EF90E146E220E156E3F0EC0
:10638C00166E92C00FF093C010F094C011F095C02F
:10639C0012F06FEC32F00FC041F010C042F011C09F
:1063AC0043F012C044F084EC34F041C051F042C0D0
:1063BC0052F043C053F044C054F02BEC29F051C0C0
:1063CC0096F052C097F053C098F054C099F096C014
:1063DC0001F097C002F098C003F099C004F0010ED0
:1063EC00BEEC2AF001C08EF002C08FF003C090F01A
:1063FC0004C091F0DA0E136E0F0E146EC90E156EEA
:10640C003F0E166E8EC00FF08FC010F090C011F0C2
:10641C0091C012F06FEC32F00FC055F010C056F076
:10642C0011C057F012C058F092C051F093C052F006
:10643C0094C053F095C054F07CEC26F051C085F01C
:10644C0052C086F053C087F054C088F085C051F01C
:10645C0086C052F087C053F088C054F0A30E136E60
:10646C00850E146E880E156E320E166E8EC00FF0E1
:10647C008FC010F090C011F091C012F06FEC32F0A0
:10648C000FC055F010C056F011C057F012C058F0A4
:10649C007CEC26F051C081F052C082F053C083F0E6
:1064AC0054C084F000018051D96EDA6A81C0DEFFDD
:1064BC0082C0DEFF83C0DEFF84C0DEFF8951D8B40A
:1064CC006AEF32F06CEF32F09FEF31F078EF31F091
:1064DC0012001250800B1B6E12501224216E11AE42
:1064EC007AEF32F07CEF32F07DEF32F021802150E8
:1064FC00D8B483EF32F085EF32F098EF32F02128E8
:10650C00D8A48BEF32F08DEF32F095EF32F0000E15
:10651C000F6E000E106E000E116E000E126E118EAC
:10652C00A0EF32F0000E0F6E000E106E000E116E0A
:10653C00000E126E1650800B1B1A16501624206E6D
:10654C0015AEABEF32F0ADEF32F0AEEF32F02080A3
:10655C002050D8B4B4EF32F0B6EF32F0C9EF32F0CD
:10656C002028D8A4BCEF32F0BEEF32F0C6EF32F0E8
:10657C00000E136E000E146E000E156E000E166ECD
:10658C00158ED1EF32F0000E136E000E146E000E4D
:10659C00156E000E166E2050D8B4D7EF32F0D9EF2E
:1065AC0032F0E1EF32F02150D8A4DFEF32F0E1EF1E
:1065BC0032F0EBEF32F0000E0F6E000E106E000E8C
:1065CC00116E000E126E83EF34F015500F02F3CFE4
:1065DC0026F0F4CF27F026501C6E1D6A1E6A1F6A27
:1065EC002750226E236A246A256A14501002F3CFB6
:1065FC0026F0F4CF27F026501C26000E1D221E225A
:10660C001F2227502226000E23222422252213503B
:10661C001102F3CF26F0F4CF27F026501C26000EE3
:10662C001D221E221F2227502226000E2322242246
:10663C0025221EC01FF01DC01EF01CC01DF01C6AC0
:10664C0013501002F3CF26F0F4CF27F026501C265F
:10665C0027501D22000E1E22000E1F2214500F0266
:10666C00F3CF26F0F4CF27F026501C2627501D22FE
:10667C00000E1E22000E1F221EC01FF01DC01EF099
:10668C001CC01DF01C6A13500F02F3CF26F0F4CF80
:10669C0027F026501C2627501D22000E1E22000E0D
:1066AC001F2215501002F3CF26F0F4CF27F02650FE
:1066BC00222627502322000E2422000E25221450BD
:1066CC001102F3CF26F0F4CF27F0265022262750C4
:1066DC002322000E2422000E252215501102F3CF86
:1066EC0026F0F4CF27F02650176E2750186E196A33
:1066FC001A6A19C01AF018C019F017C018F0176AE6
:10670C001750222618502322195024221A502522C1
:10671C001CC017F01DC018F01EC019F01FC01AF0D5
:10672C00190E9EEF33F0D8901A32193218321732F4
:10673C00E82E99EF33F017502226185023221950C7
:10674C0024221A5025221EC01FF01DC01EF01CC092
:10675C001DF01C6A205021C017F0186A1726000E75
:10676C001822820E1724266EFF0E1820276ED4EFE7
:10677C0033F0D89022362336243625361FAEC9EF97
:10678C0033F0CBEF33F0CCEF33F02280D8901C36C3
:10679C001D361E361F362606D8A0270624AED9EF86
:1067AC0033F0DBEF33F0BFEF33F0000E206E1FAE93
:1067BC00E2EF33F0E4EF33F008EF34F0FF0E1C148B
:1067CC00176EFF0E1D14186EFF0E1E14196E7F0E21
:1067DC001F141A6E1750181019101A10D8B4F9EF9C
:1067EC0033F0FBEF33F0FFEF33F0010E206E08EFC8
:1067FC0034F022A004EF34F006EF34F008EF34F05C
:10680C00FBEF33F02050D8B40EEF34F010EF34F02F
:10681C0034EF34F0010E2226000E232224222522EE
:10682C0025A01BEF34F01DEF34F034EF34F022C010
:10683C0017F023C018F024C019F025C01AF01A3430
:10684C001A3219321832173217C022F018C023F03E
:10685C0019C024F01AC025F0264A272A27BE3FEF7C
:10686C0034F0275008E12628D8A03FEF34F041EF50
:10687C0034F04BEF34F0000E226E000E236E800EBF
:10688C00246E7F0E256E79EF34F027BE58EF34F06E
:10689C00275006E12604D8B056EF34F058EF34F008
:1068AC0064EF34F0000E226E000E236E000E246E88
:1068BC00000E256E000E1B6E79EF34F026C021F011
:1068CC00FF0E2216FF0E23167F0E2416000E251621
:1068DC0021A073EF34F075EF34F076EF34F0248EA2
:1068EC00D8902130256E1B50251222C00FF023C0EA
:1068FC0010F024C011F025C012F012004450800B8F
:10690C004D6E445044244F6E43AE8FEF34F091EFF4
:10691C0034F092EF34F04F804F50D8B498EF34F0FD
:10692C009AEF34F0AFEF34F04F28D8A4A0EF34F046
:10693C00A2EF34F0AAEF34F0000E416E000E426E5E
:10694C00000E436E000E446E438E000E446EB7EF85
:10695C0034F0000E416E000E426E000E436E000EBF
:10696C00446E4850800B4E6E4D504E18D8B4C1EF4B
:10697C0034F0C3EF34F0C4EF34F04D8C485048245D
:10698C004E6E47AECCEF34F0CEEF34F0CFEF34F0A8
:10699C004E804E50D8B4D5EF34F0D7EF34F0ECEF46
:1069AC0034F04E28D8A4DDEF34F0DFEF34F0E7EF0D
:1069BC0034F0000E456E000E466E000E476E000E53
:1069CC00486E478E000E486EF4EF34F0000E456EA4
:1069DC00000E466E000E476E000E486E4F504E5C19
:1069EC00D8B0FBEF34F0FDEF34F024EF35F04DACC4
:1069FC0002EF35F004EF35F006EF35F0800E4D1A4E
:106A0C004FC050F04EC04FF050C04EF041C050F04F
:106A1C0045C041F050C045F042C050F046C042F075
:106A2C0050C046F043C050F047C043F050C047F050
:106A3C0044C050F048C044F050C048F0000E506EB6
:106A4C004F504EC049F04A6A495E000E4A5A4ABE3F
:106A5C0039EF35F04A5009E11A0E495CD8A039EFEC
:106A6C0035F03BEF35F072EF35F0415042104310EA
:106A7C004410D8A444EF35F047EF35F0010E48EF41
:106A8C0035F0000E506E000E416E000E426E000E80
:106A9C00436E000E446E4EC04FF07BEF35F050A0AD
:106AAC005AEF35F05CEF35F062EF35F0D89050309E
:106ABC000109506E64EF35F0D890503241A069EF67
:106ACC0035F06BEF35F06CEF35F0508E44344432CA
:106ADC004332423241324F2A4E504F5CD8A079EFAC
:106AEC0035F07BEF35F055EF35F04DBC80EF35F0E0
:106AFC0082EF35F0C2EF35F04F50D8A488EF35F067
:106B0C008AEF35F094EF35F0000E416E000E426EB8
:106B1C00000E436E000E446EE3EF36F045504126F6
:106B2C0046504222475043224850442244A0A1EFF1
:106B3C0035F0A3EF35F04FEF36F050A0A8EF35F05D
:106B4C00AAEF35F0B0EF35F0D89050300109506E07
:106B5C00B2EF35F0D890503241A0B7EF35F0B9EF25
:106B6C0035F0BAEF35F0508E443444324332423271
:106B7C0041324F2A4FEF36F04550415C4650425857
:106B8C00475043584450800A496E4850800A49582F
:106B9C00D8B0D3EF35F0D5EF35F000EF36F04150EB
:106BAC00455C496E425046584A6E435047584B6EAE
:106BBC00445048584C6EFF0E4924416EFF0E4A203B
:106BCC00426EFF0E4B20436EFF0E4C20446E800E27
:106BDC004D1A506C5050D8A4F6EF35F0F8EF35F054
:106BEC0008EF36F0010E4126000E422243224422C9
:106BFC0008EF36F04550415E4650425A4750435AD2
:106C0C004850445A4150421043104410D8A411EF3C
:106C1C0036F013EF36F048EF36F05050D8A419EF99
:106C2C0036F01BEF36F048EF36F0000E416E000EDA
:106C3C00426E000E436E000E446EE3EF36F0D890B9
:106C4C00413642364336443650AE2FEF36F031EFF4
:106C5C0036F032EF36F0418050A037EF36F039EF96
:106C6C0036F03DEF36F0D88050363FEF36F0D89006
:106C7C0050364F50D8B445EF36F047EF36F048EF6A
:106C8C0036F04F0643AE4DEF36F04FEF36F025EFB2
:106C9C0036F0000E4E6E50AE56EF36F058EF36F022
:106CAC0070EF36F050C049F07F0E4916D8B461EF42
:106CBC0036F063EF36F067EF36F0010E4E6E70EF84
:106CCC0036F041A06CEF36F06EEF36F070EF36F028
:106CDC0063EF36F04E50D8B476EF36F078EF36F0EE
:106CEC00A3EF36F0010E4126000E4222432244222D
:106CFC0044A083EF36F085EF36F0A3EF36F041C0B9
:106D0C0049F042C04AF043C04BF044C04CF04C3404
:106D1C004C324B324A32493249C041F04AC042F0FF
:106D2C004BC043F04CC044F04F28D8B4A0EF36F021
:106D3C00A2EF36F0A3EF36F04F2A4F28D8B4A9EFC4
:106D4C0036F0ABEF36F0B3EF36F04F50D8A4B1EFCE
:106D5C0036F0B3EF36F0C5EF36F0000E416E000E94
:106D6C00426E000E436E000E446E4F50D8A4C1EF1D
:106D7C0036F0C3EF36F0C5EF36F0000E4D6E4FA077
:106D8C00CAEF36F0CCEF36F0CFEF36F0438ED0EFC3
:106D9C0036F0439ED8904F30446E4DAED8EF36F05F
:106DAC00DAEF36F0DBEF36F0448E41C041F042C0F2
:106DBC0042F043C043F044C044F012009AC0B0F01B
:106DCC009BC0B1F09CC0B2F09DC0B3F00001B3BF4A
:106DDC00F2EF36F0F5EF36F0010EF6EF36F0000E6E
:106DEC00A76FB39FDB0EB05D0F0EB159490EB259B0
:106DFC003F0EB359D8B005EF37F007EF37F030EF4F
:106E0C0037F0800EB25D390EB359D8B010EF37F0B1
:106E1C0012EF37F01CEF37F09AC09AF09BC09BF042
:106E2C009CC09CF09DC09DF072EF39F09AC051F05F
:106E3C009BC052F09CC053F09DC054F0A8EC2DF0B8
:106E4C0051C09AF052C09BF053C09CF054C09DF0BE
:106E5C0072EF39F0D20EB05D530EB1597B0EB259B0
:106E6C00400EB359D8B03DEF37F03FEF37F022EF7B
:106E7C0038F0E40EB05DCB0EB159160EB259400E7F
:106E8C00B359D8B04CEF37F04EEF37F0BCEF37F0CA
:106E9C00A751D8B454EF37F056EF37F08EEF37F0E8
:106EAC00DB0E456E0F0E466EC90E476E3F0E486EDA
:106EBC009AC041F09BC042F09CC043F09DC044F08E
:106ECC0084EC34F041C0A8F042C0A9F043C0AAF051
:106EDC0044C0ABF0A8C051F0A9C052F0AAC053F006
:106EEC00ABC054F098EC2BF051C078F052C079F054
:106EFC0053C07AF054C07BF05FEC26F078C09AF067
:106F0C0079C09BF07AC09CF07BC09DF072EF39F099
:106F1C009AC041F09BC042F09CC043F09DC044F02D
:106F2C00DB0E456E0F0E466EC90E476EBF0E486ED9
:106F3C0084EC34F041C0A8F042C0A9F043C0AAF0E0
:106F4C0044C0ABF0A8C051F0A9C052F0AAC053F095
:106F5C00ABC054F098EC2BF051C09AF052C09BF09F
:106F6C0053C09CF054C09DF072EF39F0A751D8A4D7
:106F7C00C2EF37F0C4EF37F0EAEF37F0DB0E456EB7
:106F8C000F0E466E490E476EC00E486E9AC041F009
:106F9C009BC042F09CC043F09DC044F084EC34F0A4
:106FAC0041C078F042C079F043C07AF044C07BF025
:106FBC005FEC26F078C09EF079C09FF07AC0A0F00C
:106FCC007BC0A1F00EEF38F0DB0E456E0F0E466E57
:106FDC00490E476E400E486E9AC041F09BC042F07D
:106FEC009CC043F09DC044F084EC34F041C078F078
:106FFC0042C079F043C07AF044C07BF05FEC26F0DD
:10700C0078C09EF079C09FF07AC0A0F07BC0A1F050
:10701C009EC051F09FC052F0A0C053F0A1C054F0DC
:10702C00A8EC2DF051C09AF052C09BF053C09CF0CC
:10703C0054C09DF072EF39F0D60EB05D310EB159DF
:10704C00E20EB259400EB359D8B02FEF38F031EFF1
:10705C0038F0D2EF38F0E00EB05DED0EB159AF0E56
:10706C00B259400EB359D8B03EEF38F040EF38F07B
:10707C0080EF38F0A751D8B446EF38F048EF38F02D
:10708C0064EF38F09AC041F09BC042F09CC043F0D2
:10709C009DC044F0E40E456ECB0E466E960E476EC8
:1070AC00400E486E84EC34F041C0A8F042C0A9F008
:1070BC0043C0AAF044C0ABF0A8EF37F0E40E456E25
:1070CC00CB0E466E960E476EC00E486E9AC041F0BF
:1070DC009BC042F09CC043F09DC044F084EC34F063
:1070EC0041C0A8F042C0A9F043C0AAF044C0ABF024
:1070FC0070EF37F0A751D8A486EF38F088EF38F04E
:10710C00A4EF38F09AC041F09BC042F09CC043F011
:10711C009DC044F0DB0E456E0F0E466EC90E476ED9
:10712C00C00E486E84EC34F041C0A2F042C0A3F013
:10713C0043C0A4F044C0A5F0BEEF38F09AC041F0B3
:10714C009BC042F09CC043F09DC044F0DB0E456EEA
:10715C000F0E466EC90E476E400E486E84EC34F02E
:10716C0041C0A2F042C0A3F043C0A4F044C0A5F0BB
:10717C00A2C051F0A3C052F0A4C053F0A5C054F06B
:10718C00A8EC2DF051C09AF052C09BF053C09CF06B
:10719C0054C09DF072EF39F0800EB25D7F0EB35982
:1071AC00D8A0DBEF38F0DDEF38F0EFEF38F0FF0E62
:1071BC00B013FF0EB113FF0EB213000EB313B0C019
:1071CC009AF0B1C09BF0B2C09CF0B3C09DF072EFCE
:1071DC0039F09AC07CF09BC07DF09CC07EF09DC0C5
:1071EC007FF0AC0E806F8EEC30F000017C51030B05
:1071FC00A66F59EF39F0ACC078F0ADC079F0AEC0E5
:10720C007AF0AFC07BF05FEC26F078C0ACF079C0C0
:10721C00ADF07AC0AEF07BC0AFF0ACC051F0ADC0F9
:10722C0052F0AEC053F0AFC054F0A8EC2DF051C0EA
:10723C009AF052C09BF053C09CF054C09DF072EF7A
:10724C0039F0ACC051F0ADC052F0AEC053F0AFC08D
:10725C0054F098EC2BF051C09AF052C09BF053C0F4
:10726C009CF054C09DF072EF39F0ACC051F0ADC041
:10727C0052F0AEC053F0AFC054F098EC2BF051C0AC
:10728C0078F052C079F053C07AF054C07BF05FECC8
:10729C0026F078C09AF079C09BF07AC09CF07BC045
:1072AC009DF072EF39F0A6515D6E5E6A5E50000A79
:1072BC00D8B463EF39F03BEF39F05D50000AD8B425
:1072CC0013EF39F0010AD8B427EF39F0030AD8B418
:1072DC0001EF39F03BEF39F0120000000000000024
:1072EC000000000000000000000000000000000092
:1072FC000000000000000000000000000000000082
:10730C000000000000000000000000000000000071
:10731C000000000000000000000000000000000061
:10732C000000000000000000000000000000000051
:10733C000000000000000000000000000000000041
:10734C000000000000000000000000000000000031
:10735C000000000000000000000000000000000021
:10736C000000000000000000000000000000000011
:10737C000000000000000000000000000000000001
:10738C0000000000000000000000000000000000F1
:10739C0000000000000000000000000000000000E1
:1073AC0000000000000000000000000000000000D1
:1073BC0000000000000000000000000000000000C1
:1073CC0000000000000000000000000000000000B1
:1073DC0000000000000000000000000000000000A1
:1073EC0000000000065F5F060000000007070007B2
:1073FC00070000147F7F147F7F1400242E6B6B3AE0
:10740C00120000466630180C666200307A4F5D3709
:10741C007A48000407030000000000001C3E634192
:10742C000000000041633E1C000000082A3E1C1CAA
:10743C003E2A0808083E3E080800000080E0600074
:10744C000000000808080808080000000060600040
:10745C000000006030180C060301003E7F71594D8E
:10746C007F3E0040427F7F40400000627359496F6D
:10747C00660000226349497F360000181C16537FB2
:10748C007F5000276745457D3900003C7E4B49798C
:10749C00300000030371790F070000367F49497FE4
:1074AC00360000064F49693F1E000000006666006A
:1074BC000000000080E66600000000081C366341F6
:1074CC000000002424242424240000004163361CE2
:1074DC00080000020351590F0600003E7F415D5D1C
:1074EC001F1E007C7E13137E7C0000417F7F494968
:1074FC007F36001C3E634141632200417F7F416324
:10750C003E1C00417F7F495D416300417F7F491DE7
:10751C000103001C3E6341517372007F7F08087F9A
:10752C007F000000417F7F41000000307040417FB0
:10753C003F0100417F7F081C776300417F7F414002
:10754C006070007F7F0E1C0E7F7F007F7F060C1803
:10755C007F7F001C3E6341633E1C00417F7F4909D5
:10756C000F06001E3F21717F5E0000417F7F0919CD
:10757C007F6600266F4D597332000003417F7F41B7
:10758C000300007F7F40407F7F00001F3F60603F13
:10759C001F00007F7F3018307F7F0043673C183C12
:1075AC00674300074F78784F070000476371594DC8
:1075BC00677300007F7F41410000000103060C1837
:1075CC003060000041417F7F000000080C0603067C
:1075DC000C0800808080808080808000000307047D
:1075EC00000000207454543C784000417F3F4848D0
:1075FC00783000387C44446C280000307848493F8F
:10760C007F4000387C54545C180000487E7F49034E
:10761C0002000098BCA4A4F87C0400417F7F0804FD
:10762C007C780000447D7D4000000060E08080FD9F
:10763C007D0000417F7F10386C440000417F7F400B
:10764C000000007C7C18381C7C78007C7C04047C5A
:10765C00780000387C44447C38000084FCF8A42476
:10766C003C1800183C24A4F8FC8400447C784C049E
:10767C001C1800485C54547424000000043E7F44E1
:10768C002400003C7C40403C7C40001C3C60603C46
:10769C001C00003C7C7038707C3C00446C3810380A
:1076AC006C44009CBCA0A0FC7C00004C64745C4C42
:1076BC0064000008083E7741410000000000777725
:1076CC000000004141773E0808000002030103025C
:1076DC0003010070784C464C7870000E9F91B1FB02
:1076EC004A00003A7A40407A7A4000387C54555D22
:1076FC0019000002237555557D7B42217554547D2C
:10770C00794000217555547C784000207457577C83
:10771C00784000183CA4A4E4400000023B7D555581
:10772C005D1B02397D54545D190000397D55545C44
:10773C0018000001457C7C410100000203457D7D61
:10774C0043020001457D7C40000000797D16121635
:10775C007D790070782B2B78700000447C7C55551B
:10776C00450000207454547C7C54547C7E0B097F5F
:10777C007F4900327B49497B320000327A48487A93
:10778C00320000327A4A48783000003A7B41417B23
:10779C007A40003A7A4240787840009ABAA0A0FA2F
:1077AC007A000001193C66663C19013D7D40407D24
:1077BC003D0000183C24E7E7242400687E7F494301
:1077CC006620002B2FFCFC2F2B0000FFFF09092F3C
:1077DC00F6F8A040C088FE7F090302207454557D42
:1077EC0079400000447D7D410000003078484A7AA1
:1077FC00320000387840427A7A40007A7A0A0A7A63
:10780C007000007D7D19317D7D000000262F292F11
:10781C002F280000262F292F26000030784D456098
:10782C002000003838080808080000080808083844
:10783C003800004F6F3018CCEEBB914F6F30186C86
:10784C0076FBF90000007B7B000000081C36220848
:10785C001C362222361C0822361C08AA005500AA07
:10786C00005500AA55AA55AA55AA55DDFFAA77DDE1
:10787C00AAFF77000000FFFF000000101010FFFFB0
:10788C00000000141414FFFF0000001010FFFF0094
:10789C00FFFF001010F0F010F0F000141414FCFCBA
:1078AC000000001414F7F700FFFF000000FFFF00BA
:1078BC00FFFF001414F4F404FCFC0014141717104C
:1078CC001F1F0010101F1F101F1F001414141F1F48
:1078DC00000000101010F0F00000000000001F1F4E
:1078EC001010101010101F1F101010101010F0F0AE
:1078FC00101010000000FFFF1010101010101010CE
:10790C00101010101010FFFF101010000000FFFFDF
:10791C001414140000FFFF00FFFF1000001F1F10C5
:10792C001717140000FCFC04F4F4141414171710AB
:10793C001717141414F4F404F4F4140000FFFF00EB
:10794C00F7F71414141414141414141414F7F70073
:10795C00F7F714141414171714141410101F1F1005
:10796C001F1F10141414F4F41414141010F0F0104D
:10797C00F0F01000001F1F101F1F100000001F1F31
:10798C00141414000000FCFC1414140000F0F0108B
:10799C00F0F0101010FFFF10FFFF10141414FFFF75
:1079AC001414141010101F1F000000000000F0F041
:1079BC00101010FFFFFFFFFFFFFFFFF0F0F0F0F0E3
:1079CC00F0F0F0FFFFFFFF0000000000000000FFE0
:1079DC00FFFFFF0F0F0F0F0F0F0F0F387C446C388A
:1079EC006C4400FCFE2A2A3E1400007E7E02020635
:1079FC00060000027E7E027E7E020063775D496394
:107A0C00630000387C447C3C04040080FE7E202013
:107A1C003E1E000406027E7C06020099BDE7E7BD0F
:107A2C009900001C3E6B496B3E1C004C7E7301732D
:107A3C007E4C0030784A4F7D390000183C243C3C89
:107A4C00243C1898FC643C3E273D180000000000C4
:107A5C00000000000000000000000000000000001A
:107A6C00000000000000000000000000000000000A
:107A7C0000000000000000000000000000000000FA
:107A8C0000000000000000000000000000000000EA
:107A9C0000000000000000000000000000000000DA
:107AAC0000000000000000000000000000000000CA
:107ABC0000000000000000000000000000000000BA
:107ACC0000000000000000000000000000000000AA
:107ADC00000000000000000000000000000000009A
:107AEC00000000808080800000000000000000008A
:107AFC0000000000000000800000800000800000FA
:107B0C000000000000000000000000000000000069
:107B1C000000000000000000000000000000000059
:107B2C000000000000000000000000000000000049
:107B3C000000000000000000000000000000000039
:107B4C000000000000000000000000000000000029
:107B5C000000000000000000000000000000000019
:107B6C00003E4180808080413E0000D894A46C008F
:107B7C00007884844C0088FC8081FF8081FF800029
:107B8C0078848484780000D894A46C000078848471
:107B9C004C000078848484780008FC488484780045
:107BAC0000789494580000000000D894A46C000451
:107BBC001C6480740C0400D894A46C0004FF8440F2
:107BCC0000789494580088FC8804FC8804F88000A1
:107BDC000000000000000000000000000000000099
:107BEC000000000000000000000000000000000089
:107BFC000000000000000000000000000000000079
:107C0C000000000000000000000000000000000068
:107C1C000000000000000000000407040000000049
:107C2C000000000000000000000000000000000444
:107C3C00040601000000000000000000000000002D
:107C4C000000000000000000000000000000000028
:107C5C000000000000000000000000000000000018
:107C6C000000000000000000000000000000000008
:107C7C0000000000000000000000000000000000F8
:107C8C00000000000000000000000080F0F8181C4C
:107C9C000E0E1C1878F0C0800000000000000000E0
:107CAC0000000000000000000080F0F8181C0C0E12
:107CBC000E1C18F8F080000000000000000000000E
:107CCC0000000000000000000000000000000000A8
:107CDC000000000000000000000000000000000098
:107CEC000000000000000000000000000000000088
:107CFC000000000000000000000000000000000078
:107D0C0000000000000000000000F8FF0F00000061
:107D1C000000000000000FFFF80000000000000051
:107D2C000000000000000000F8FF0F000000000041
:107D3C00000000000FFFF800000000000000000031
:107D4C000000000000000000000000000000000027
:107D5C000000000000000000000000000000000017
:107D6C000000000000000000000000000000000007
:107D7C000000000800080008001CFCF8800800083F
:107D8C000008000800080008E0FF3F090008000890
:107D9C0000080008000800093FFFE0080008000880
:107DAC00000800080008E0FF3F0900080008000870
:107DBC000008000800090F0F000800080008000068
:107DCC0000000000000000000000000000000000A7
:107DDC000000000000000000000000000000000097
:107DEC000000000000000000000000000000000087
:107DFC000000000000000000000000073FFCE00055
:107E0C00000000000080C0FC7F07000000000000A4
:107E1C00000000000000000000073FFCE000000034
:107E2C0000000000C0FC7F07000000000000000004
:107E3C000000000000000000000000000000000036
:107E4C000000000000000000000000000000000026
:107E5C000000000000000000000000000000000016
:107E6C000000000000000000000000000000000006
:107E7C000000000000000000000000000001070FDF
:107E8C001C18181C0F070100000000000000000067
:107E9C00000000000000000000000001070F1C188B
:107EAC00181C0C0F0701000000000000000000006F
:107EBC0000000000000000000000000000000000B6
:107ECC0000000000000000000000000000000000A6
:107EDC000000000000000000000000000000005C3A
:107EEC00000C000C7C287C7C447C24104828540812
:107EFC00000C003844004438002010081038108062
:107F0C004000101010004000201008384438007C4D
:107F1C00006454484454281C107C4C54243854207D
:107F2C0004740C2854280854380050008050001059
:107F3C002844282828442810045408384C5C781409
:107F4C00787C54283844447C44387C54447C140455
:107F5C003844347C107C007C0020403C7C106C7CD1
:107F6C0040407C087C7C047C7C447C7C1408384439
:107F7C00787C1468485424047C047C407C3C403C51
:107F8C007C207C6C106C1C601C64544C7C44000881
:107F9C001020447C000804088080800408003C6C9D
:107FAC003636CF0750B98488083CABAA2ABEA385C5
:107FBC008832DA0FC93F83F9223F0000003F179A3D
:107FCC00CC373F04B6BA9FAA2A3D000000BFDB0F96
:107FDC00C940E4CB9640DB0F4940DB0FC93F492831
:107FEC00412900542856290032302E3500302E34C9
:037FFC003500004D
:020000040020DA
:08000000FFFFFFFFFFFFFFFF00
:020000040030CA
:0E000000000C191EFF8301FF0FC00FE00F4020
:00000001FF
